{
  "_format": "hh-sol-artifact-1",
  "contractName": "KetchupOrMayoPortal",
  "sourceName": "contracts/KetchupOrMayoPortal.sol",
  "abi": [
    {
      "inputs": [],
      "stateMutability": "payable",
      "type": "constructor"
    },
    {
      "anonymous": false,
      "inputs": [
        {
          "indexed": true,
          "internalType": "address",
          "name": "from",
          "type": "address"
        },
        {
          "indexed": false,
          "internalType": "uint256",
          "name": "timestamp",
          "type": "uint256"
        },
        {
          "indexed": false,
          "internalType": "string",
          "name": "message",
          "type": "string"
        },
        {
          "indexed": false,
          "internalType": "uint256",
          "name": "totalCountKetchup",
          "type": "uint256"
        },
        {
          "indexed": false,
          "internalType": "uint256",
          "name": "totalCountMayo",
          "type": "uint256"
        }
      ],
      "name": "NewTopping",
      "type": "event"
    },
    {
      "inputs": [],
      "name": "choseKetchup",
      "outputs": [],
      "stateMutability": "nonpayable",
      "type": "function"
    },
    {
      "inputs": [],
      "name": "choseMayo",
      "outputs": [],
      "stateMutability": "nonpayable",
      "type": "function"
    },
    {
      "inputs": [],
      "name": "getAllToppings",
      "outputs": [
        {
          "components": [
            {
              "internalType": "address",
              "name": "chose",
              "type": "address"
            },
            {
              "internalType": "string",
              "name": "topping",
              "type": "string"
            },
            {
              "internalType": "uint256",
              "name": "timestamp",
              "type": "uint256"
            },
            {
              "internalType": "uint256",
              "name": "totalCountKetchup",
              "type": "uint256"
            },
            {
              "internalType": "uint256",
              "name": "totalCountMayo",
              "type": "uint256"
            }
          ],
          "internalType": "struct KetchupOrMayoPortal.Topping[]",
          "name": "",
          "type": "tuple[]"
        }
      ],
      "stateMutability": "view",
      "type": "function"
    },
    {
      "inputs": [],
      "name": "getTotalCountKetchup",
      "outputs": [
        {
          "internalType": "uint256",
          "name": "",
          "type": "uint256"
        }
      ],
      "stateMutability": "view",
      "type": "function"
    },
    {
      "inputs": [],
      "name": "getTotalCountMayo",
      "outputs": [
        {
          "internalType": "uint256",
          "name": "",
          "type": "uint256"
        }
      ],
      "stateMutability": "view",
      "type": "function"
    },
    {
      "inputs": [
        {
          "internalType": "address",
          "name": "",
          "type": "address"
        }
      ],
      "name": "lastChosen",
      "outputs": [
        {
          "internalType": "uint256",
          "name": "",
          "type": "uint256"
        }
      ],
      "stateMutability": "view",
      "type": "function"
    }
  ],
  "bytecode": "0x60806040526200004f6040518060400160405280601b81526020017f57656c636f6d6520746f2074686973206570696320626174746c6500000000008152506200007760201b620008da1760201c565b606444426200005f9190620001c4565b6200006b919062000261565b60028190555062000308565b62000117816040516024016200008e919062000184565b6040516020818303038152906040527f41304fac000000000000000000000000000000000000000000000000000000007bffffffffffffffffffffffffffffffffffffffffffffffffffffffff19166020820180517bffffffffffffffffffffffffffffffffffffffffffffffffffffffff83818316178352505050506200011a60201b60201c565b50565b60008151905060006a636f6e736f6c652e6c6f679050602083016000808483855afa5050505050565b60006200015082620001a8565b6200015c8185620001b3565b93506200016e8185602086016200022b565b6200017981620002f7565b840191505092915050565b60006020820190508181036000830152620001a0818462000143565b905092915050565b600081519050919050565b600082825260208201905092915050565b6000620001d18262000221565b9150620001de8362000221565b9250827fffffffffffffffffffffffffffffffffffffffffffffffffffffffffffffffff0382111562000216576200021562000299565b5b828201905092915050565b6000819050919050565b60005b838110156200024b5780820151818401526020810190506200022e565b838111156200025b576000848401525b50505050565b60006200026e8262000221565b91506200027b8362000221565b9250826200028e576200028d620002c8565b5b828206905092915050565b7f4e487b7100000000000000000000000000000000000000000000000000000000600052601160045260246000fd5b7f4e487b7100000000000000000000000000000000000000000000000000000000600052601260045260246000fd5b6000601f19601f8301169050919050565b61160180620003186000396000f3fe608060405234801561001057600080fd5b50600436106100625760003560e01c80631ac4de91146100675780637725f468146100855780639ee64aee146100a3578063c6af1934146100d3578063ceed0118146100dd578063fe95dbd5146100fb575b600080fd5b61006f610105565b60405161007c91906112ce565b60405180910390f35b61008d610150565b60405161009a91906111ca565b60405180910390f35b6100bd60048036038101906100b89190610e13565b6102b5565b6040516100ca91906112ce565b60405180910390f35b6100db6102cd565b005b6100e56105ae565b6040516100f291906112ce565b60405180910390f35b6101036105f9565b005b60006101486040518060400160405280601b81526020017f25642070656f706c6520686176652063686f73656e206d61796f210000000000815250600154610973565b600154905090565b60606003805480602002602001604051908101604052809291908181526020016000905b828210156102ac57838290600052602060002090600502016040518060a00160405290816000820160009054906101000a900473ffffffffffffffffffffffffffffffffffffffff1673ffffffffffffffffffffffffffffffffffffffff1673ffffffffffffffffffffffffffffffffffffffff1681526020016001820180546101fd906114b3565b80601f0160208091040260200160405190810160405280929190818152602001828054610229906114b3565b80156102765780601f1061024b57610100808354040283529160200191610276565b820191906000526020600020905b81548152906001019060200180831161025957829003601f168201915b50505050508152602001600282015481526020016003820154815260200160048201548152505081526020019060010190610174565b50505050905090565b60046020528060005260406000206000915090505481565b6102d5610a0f565b60016000808282546102e791906113ee565b9250508190555061032d6040518060400160405280601681526020017f2573206861732063686f73656e206b657463687570210000000000000000000081525033610ae2565b60036040518060a001604052803373ffffffffffffffffffffffffffffffffffffffff1681526020016040518060400160405280601381526020017f4b65746368757020666f72207468652077696e0000000000000000000000000081525081526020014281526020016000548152602001600154815250908060018154018082558091505060019003906000526020600020906005020160009091909190915060008201518160000160006101000a81548173ffffffffffffffffffffffffffffffffffffffff021916908373ffffffffffffffffffffffffffffffffffffffff1602179055506020820151816001019080519060200190610431929190610d5b565b50604082015181600201556060820151816003015560808201518160040155505061045a610b7e565b3373ffffffffffffffffffffffffffffffffffffffff167f66e5a3c61d310db506587910540e4c685ffdb98d694f3817e678882dd0776868426000546001546040516104a893929190611333565b60405180910390a26000655af3107a40009050478111156104fe576040517f08c379a00000000000000000000000000000000000000000000000000000000081526004016104f59061126e565b60405180910390fd5b60003373ffffffffffffffffffffffffffffffffffffffff1682604051610524906111b5565b60006040518083038185875af1925050503d8060008114610561576040519150601f19603f3d011682016040523d82523d6000602084013e610566565b606091505b50509050806105aa576040517f08c379a00000000000000000000000000000000000000000000000000000000081526004016105a19061128e565b60405180910390fd5b5050565b60006105f16040518060400160405280601e81526020017f25642070656f706c6520686176652063686f73656e206b657463687570210000815250600054610973565b600054905090565b610601610a0f565b600180600082825461061391906113ee565b925050819055506106596040518060400160405280601381526020017f2573206861732063686f73656e206d61796f210000000000000000000000000081525033610ae2565b60036040518060a001604052803373ffffffffffffffffffffffffffffffffffffffff1681526020016040518060400160405280601081526020017f4d61796f20666f72207468652077696e0000000000000000000000000000000081525081526020014281526020016000548152602001600154815250908060018154018082558091505060019003906000526020600020906005020160009091909190915060008201518160000160006101000a81548173ffffffffffffffffffffffffffffffffffffffff021916908373ffffffffffffffffffffffffffffffffffffffff160217905550602082015181600101908051906020019061075d929190610d5b565b506040820151816002015560608201518160030155608082015181600401555050610786610b7e565b3373ffffffffffffffffffffffffffffffffffffffff167f66e5a3c61d310db506587910540e4c685ffdb98d694f3817e678882dd0776868426000546001546040516107d4939291906112e9565b60405180910390a26000655af3107a400090504781111561082a576040517f08c379a00000000000000000000000000000000000000000000000000000000081526004016108219061126e565b60405180910390fd5b60003373ffffffffffffffffffffffffffffffffffffffff1682604051610850906111b5565b60006040518083038185875af1925050503d806000811461088d576040519150601f19603f3d011682016040523d82523d6000602084013e610892565b606091505b50509050806108d6576040517f08c379a00000000000000000000000000000000000000000000000000000000081526004016108cd9061128e565b60405180910390fd5b5050565b610970816040516024016108ee91906111ec565b6040516020818303038152906040527f41304fac000000000000000000000000000000000000000000000000000000007bffffffffffffffffffffffffffffffffffffffffffffffffffffffff19166020820180517bffffffffffffffffffffffffffffffffffffffffffffffffffffffff8381831617835250505050610d32565b50565b610a0b828260405160240161098992919061123e565b6040516020818303038152906040527f9710a9d0000000000000000000000000000000000000000000000000000000007bffffffffffffffffffffffffffffffffffffffffffffffffffffffff19166020820180517bffffffffffffffffffffffffffffffffffffffffffffffffffffffff8381831617835250505050610d32565b5050565b42601e600460003373ffffffffffffffffffffffffffffffffffffffff1673ffffffffffffffffffffffffffffffffffffffff16815260200190815260200160002054610a5c91906113ee565b10610a9c576040517f08c379a0000000000000000000000000000000000000000000000000000000008152600401610a93906112ae565b60405180910390fd5b42600460003373ffffffffffffffffffffffffffffffffffffffff1673ffffffffffffffffffffffffffffffffffffffff16815260200190815260200160002081905550565b610b7a8282604051602401610af892919061120e565b6040516020818303038152906040527f319af333000000000000000000000000000000000000000000000000000000007bffffffffffffffffffffffffffffffffffffffffffffffffffffffff19166020820180517bffffffffffffffffffffffffffffffffffffffffffffffffffffffff8381831617835250505050610d32565b5050565b60646002544244610b8f91906113ee565b610b9991906113ee565b610ba391906114e5565b600281905550610bea6040518060400160405280601681526020017f52616e646f6d20232067656e6572617465643a20256400000000000000000000815250600254610973565b600a60025411610d3057610c336040518060400160405280600781526020017f257320776f6e210000000000000000000000000000000000000000000000000081525033610ae2565b6000655af3107a4000905047811115610c81576040517f08c379a0000000000000000000000000000000000000000000000000000000008152600401610c789061126e565b60405180910390fd5b60003373ffffffffffffffffffffffffffffffffffffffff1682604051610ca7906111b5565b60006040518083038185875af1925050503d8060008114610ce4576040519150601f19603f3d011682016040523d82523d6000602084013e610ce9565b606091505b5050905080610d2d576040517f08c379a0000000000000000000000000000000000000000000000000000000008152600401610d249061128e565b60405180910390fd5b50505b565b60008151905060006a636f6e736f6c652e6c6f679050602083016000808483855afa5050505050565b828054610d67906114b3565b90600052602060002090601f016020900481019282610d895760008555610dd0565b82601f10610da257805160ff1916838001178555610dd0565b82800160010185558215610dd0579182015b82811115610dcf578251825591602001919060010190610db4565b5b509050610ddd9190610de1565b5090565b5b80821115610dfa576000816000905550600101610de2565b5090565b600081359050610e0d816115b4565b92915050565b600060208284031215610e2557600080fd5b6000610e3384828501610dfe565b91505092915050565b6000610e488383611121565b905092915050565b610e5981611444565b82525050565b610e6881611444565b82525050565b6000610e798261138d565b610e8381856113b0565b935083602082028501610e958561137d565b8060005b85811015610ed15784840389528151610eb28582610e3c565b9450610ebd836113a3565b925060208a01995050600181019050610e99565b50829750879550505050505092915050565b6000610eee82611398565b610ef881856113cc565b9350610f08818560208601611480565b610f11816115a3565b840191505092915050565b6000610f2782611398565b610f3181856113dd565b9350610f41818560208601611480565b610f4a816115a3565b840191505092915050565b6000610f626034836113dd565b91507f547279696e6720746f207769746864726177206d6f7265206d6f6e657920746860008301527f616e2074686520636f6e7472616374206861732e0000000000000000000000006020830152604082019050919050565b6000610fc86027836113dd565b91507f4661696c656420746f207769746864726177206d6f6e65792066726f6d20636f60008301527f6e74726163742e000000000000000000000000000000000000000000000000006020830152604082019050919050565b600061102e6010836113dd565b91507f4d61796f20666f72207468652077696e000000000000000000000000000000006000830152602082019050919050565b600061106e6029836113dd565b91507f4d7573742077616974203330207365636f6e6473206265666f7265207761766960008301527f6e6720616761696e2e00000000000000000000000000000000000000000000006020830152604082019050919050565b60006110d46000836113c1565b9150600082019050919050565b60006110ee6013836113dd565b91507f4b65746368757020666f72207468652077696e000000000000000000000000006000830152602082019050919050565b600060a0830160008301516111396000860182610e50565b50602083015184820360208601526111518282610ee3565b91505060408301516111666040860182611197565b5060608301516111796060860182611197565b50608083015161118c6080860182611197565b508091505092915050565b6111a081611476565b82525050565b6111af81611476565b82525050565b60006111c0826110c7565b9150819050919050565b600060208201905081810360008301526111e48184610e6e565b905092915050565b600060208201905081810360008301526112068184610f1c565b905092915050565b600060408201905081810360008301526112288185610f1c565b90506112376020830184610e5f565b9392505050565b600060408201905081810360008301526112588185610f1c565b905061126760208301846111a6565b9392505050565b6000602082019050818103600083015261128781610f55565b9050919050565b600060208201905081810360008301526112a781610fbb565b9050919050565b600060208201905081810360008301526112c781611061565b9050919050565b60006020820190506112e360008301846111a6565b92915050565b60006080820190506112fe60008301866111a6565b818103602083015261130f81611021565b905061131e60408301856111a6565b61132b60608301846111a6565b949350505050565b600060808201905061134860008301866111a6565b8181036020830152611359816110e1565b905061136860408301856111a6565b61137560608301846111a6565b949350505050565b6000819050602082019050919050565b600081519050919050565b600081519050919050565b6000602082019050919050565b600082825260208201905092915050565b600081905092915050565b600082825260208201905092915050565b600082825260208201905092915050565b60006113f982611476565b915061140483611476565b9250827fffffffffffffffffffffffffffffffffffffffffffffffffffffffffffffffff0382111561143957611438611516565b5b828201905092915050565b600061144f82611456565b9050919050565b600073ffffffffffffffffffffffffffffffffffffffff82169050919050565b6000819050919050565b60005b8381101561149e578082015181840152602081019050611483565b838111156114ad576000848401525b50505050565b600060028204905060018216806114cb57607f821691505b602082108114156114df576114de611574565b5b50919050565b60006114f082611476565b91506114fb83611476565b92508261150b5761150a611545565b5b828206905092915050565b7f4e487b7100000000000000000000000000000000000000000000000000000000600052601160045260246000fd5b7f4e487b7100000000000000000000000000000000000000000000000000000000600052601260045260246000fd5b7f4e487b7100000000000000000000000000000000000000000000000000000000600052602260045260246000fd5b6000601f19601f8301169050919050565b6115bd81611444565b81146115c857600080fd5b5056fea2646970667358221220017042654f9b849bf398d0cd6bb25e664ff79256ae4c5da6a3ec88c072f63e4c64736f6c63430008000033",
  "linkReferences": {},
  "deployedLinkReferences": {}
}