{
  "_format": "hh-sol-artifact-1",
  "contractName": "KetchupOrMayoPortal",
  "sourceName": "contracts/KetchupOrMayoPortal.sol",
  "abi": [
    {
      "inputs": [],
      "stateMutability": "payable",
      "type": "constructor"
    },
    {
      "anonymous": false,
      "inputs": [
        {
          "indexed": true,
          "internalType": "address",
          "name": "from",
          "type": "address"
        },
        {
          "indexed": false,
          "internalType": "uint256",
          "name": "timestamp",
          "type": "uint256"
        },
        {
          "indexed": false,
          "internalType": "string",
          "name": "message",
          "type": "string"
        },
        {
          "indexed": false,
          "internalType": "uint256",
          "name": "totalCountKetchup",
          "type": "uint256"
        },
        {
          "indexed": false,
          "internalType": "uint256",
          "name": "totalCountMayo",
          "type": "uint256"
        }
      ],
      "name": "NewTopping",
      "type": "event"
    },
    {
      "inputs": [],
      "name": "choseKetchup",
      "outputs": [],
      "stateMutability": "nonpayable",
      "type": "function"
    },
    {
      "inputs": [],
      "name": "choseMayo",
      "outputs": [],
      "stateMutability": "nonpayable",
      "type": "function"
    },
    {
      "inputs": [],
      "name": "getAllToppings",
      "outputs": [
        {
          "components": [
            {
              "internalType": "address",
              "name": "chose",
              "type": "address"
            },
            {
              "internalType": "string",
              "name": "topping",
              "type": "string"
            },
            {
              "internalType": "uint256",
              "name": "timestamp",
              "type": "uint256"
            },
            {
              "internalType": "uint256",
              "name": "totalCountKetchup",
              "type": "uint256"
            },
            {
              "internalType": "uint256",
              "name": "totalCountMayo",
              "type": "uint256"
            }
          ],
          "internalType": "struct KetchupOrMayoPortal.Topping[]",
          "name": "",
          "type": "tuple[]"
        }
      ],
      "stateMutability": "view",
      "type": "function"
    },
    {
      "inputs": [],
      "name": "getTotalCountKetchup",
      "outputs": [
        {
          "internalType": "uint256",
          "name": "",
          "type": "uint256"
        }
      ],
      "stateMutability": "view",
      "type": "function"
    },
    {
      "inputs": [],
      "name": "getTotalCountMayo",
      "outputs": [
        {
          "internalType": "uint256",
          "name": "",
          "type": "uint256"
        }
      ],
      "stateMutability": "view",
      "type": "function"
    },
    {
      "inputs": [
        {
          "internalType": "address",
          "name": "",
          "type": "address"
        }
      ],
      "name": "lastChosen",
      "outputs": [
        {
          "internalType": "uint256",
          "name": "",
          "type": "uint256"
        }
      ],
      "stateMutability": "view",
      "type": "function"
    }
  ],
  "bytecode": "0x60806040526200004f6040518060400160405280601b81526020017f57656c636f6d6520746f2074686973206570696320626174746c6500000000008152506200007760201b620006d21760201c565b606444426200005f9190620001c4565b6200006b919062000261565b60028190555062000308565b62000117816040516024016200008e919062000184565b6040516020818303038152906040527f41304fac000000000000000000000000000000000000000000000000000000007bffffffffffffffffffffffffffffffffffffffffffffffffffffffff19166020820180517bffffffffffffffffffffffffffffffffffffffffffffffffffffffff83818316178352505050506200011a60201b60201c565b50565b60008151905060006a636f6e736f6c652e6c6f679050602083016000808483855afa5050505050565b60006200015082620001a8565b6200015c8185620001b3565b93506200016e8185602086016200022b565b6200017981620002f7565b840191505092915050565b60006020820190508181036000830152620001a0818462000143565b905092915050565b600081519050919050565b600082825260208201905092915050565b6000620001d18262000221565b9150620001de8362000221565b9250827fffffffffffffffffffffffffffffffffffffffffffffffffffffffffffffffff0382111562000216576200021562000299565b5b828201905092915050565b6000819050919050565b60005b838110156200024b5780820151818401526020810190506200022e565b838111156200025b576000848401525b50505050565b60006200026e8262000221565b91506200027b8362000221565b9250826200028e576200028d620002c8565b5b828206905092915050565b7f4e487b7100000000000000000000000000000000000000000000000000000000600052601160045260246000fd5b7f4e487b7100000000000000000000000000000000000000000000000000000000600052601260045260246000fd5b6000601f19601f8301169050919050565b6110a080620003186000396000f3fe608060405234801561001057600080fd5b50600436106100625760003560e01c80631ac4de91146100675780637725f468146100855780639ee64aee146100a3578063c6af1934146100d3578063ceed0118146100dd578063fe95dbd5146100fb575b600080fd5b61006f610105565b60405161007c9190610dd8565b60405180910390f35b61008d610150565b60405161009a9190610d14565b60405180910390f35b6100bd60048036038101906100b89190610a58565b6102b5565b6040516100ca9190610dd8565b60405180910390f35b6100db6102cd565b005b6100e56104aa565b6040516100f29190610dd8565b60405180910390f35b6101036104f5565b005b60006101486040518060400160405280601b81526020017f25642070656f706c6520686176652063686f73656e206d61796f21000000000081525060015461076b565b600154905090565b60606003805480602002602001604051908101604052809291908181526020016000905b828210156102ac57838290600052602060002090600502016040518060a00160405290816000820160009054906101000a900473ffffffffffffffffffffffffffffffffffffffff1673ffffffffffffffffffffffffffffffffffffffff1673ffffffffffffffffffffffffffffffffffffffff1681526020016001820180546101fd90610fb2565b80601f016020809104026020016040519081016040528092919081815260200182805461022990610fb2565b80156102765780601f1061024b57610100808354040283529160200191610276565b820191906000526020600020905b81548152906001019060200180831161025957829003601f168201915b50505050508152602001600282015481526020016003820154815260200160048201548152505081526020019060010190610174565b50505050905090565b60046020528060005260406000206000915090505481565b6102d5610807565b60016000808282546102e79190610eed565b9250508190555061032d6040518060400160405280601681526020017f2573206861732063686f73656e206b6574636875702100000000000000000000815250336108db565b60036040518060a001604052803373ffffffffffffffffffffffffffffffffffffffff1681526020016040518060400160405280601381526020017f4b65746368757020666f72207468652077696e0000000000000000000000000081525081526020014281526020016000548152602001600154815250908060018154018082558091505060019003906000526020600020906005020160009091909190915060008201518160000160006101000a81548173ffffffffffffffffffffffffffffffffffffffff021916908373ffffffffffffffffffffffffffffffffffffffff16021790555060208201518160010190805190602001906104319291906109a0565b5060408201518160020155606082015181600301556080820151816004015550503373ffffffffffffffffffffffffffffffffffffffff167f66e5a3c61d310db506587910540e4c685ffdb98d694f3817e678882dd0776868426000546001546040516104a093929190610e3d565b60405180910390a2565b60006104ed6040518060400160405280601e81526020017f25642070656f706c6520686176652063686f73656e206b65746368757021000081525060005461076b565b600054905090565b6104fd610807565b600180600082825461050f9190610eed565b925050819055506105556040518060400160405280601381526020017f2573206861732063686f73656e206d61796f2100000000000000000000000000815250336108db565b60036040518060a001604052803373ffffffffffffffffffffffffffffffffffffffff1681526020016040518060400160405280601081526020017f4d61796f20666f72207468652077696e0000000000000000000000000000000081525081526020014281526020016000548152602001600154815250908060018154018082558091505060019003906000526020600020906005020160009091909190915060008201518160000160006101000a81548173ffffffffffffffffffffffffffffffffffffffff021916908373ffffffffffffffffffffffffffffffffffffffff16021790555060208201518160010190805190602001906106599291906109a0565b5060408201518160020155606082015181600301556080820151816004015550503373ffffffffffffffffffffffffffffffffffffffff167f66e5a3c61d310db506587910540e4c685ffdb98d694f3817e678882dd0776868426000546001546040516106c893929190610df3565b60405180910390a2565b610768816040516024016106e69190610d36565b6040516020818303038152906040527f41304fac000000000000000000000000000000000000000000000000000000007bffffffffffffffffffffffffffffffffffffffffffffffffffffffff19166020820180517bffffffffffffffffffffffffffffffffffffffffffffffffffffffff8381831617835250505050610977565b50565b6108038282604051602401610781929190610d88565b6040516020818303038152906040527f9710a9d0000000000000000000000000000000000000000000000000000000007bffffffffffffffffffffffffffffffffffffffffffffffffffffffff19166020820180517bffffffffffffffffffffffffffffffffffffffffffffffffffffffff8381831617835250505050610977565b5050565b42610708600460003373ffffffffffffffffffffffffffffffffffffffff1673ffffffffffffffffffffffffffffffffffffffff168152602001908152602001600020546108559190610eed565b10610895576040517f08c379a000000000000000000000000000000000000000000000000000000000815260040161088c90610db8565b60405180910390fd5b42600460003373ffffffffffffffffffffffffffffffffffffffff1673ffffffffffffffffffffffffffffffffffffffff16815260200190815260200160002081905550565b61097382826040516024016108f1929190610d58565b6040516020818303038152906040527f319af333000000000000000000000000000000000000000000000000000000007bffffffffffffffffffffffffffffffffffffffffffffffffffffffff19166020820180517bffffffffffffffffffffffffffffffffffffffffffffffffffffffff8381831617835250505050610977565b5050565b60008151905060006a636f6e736f6c652e6c6f679050602083016000808483855afa5050505050565b8280546109ac90610fb2565b90600052602060002090601f0160209004810192826109ce5760008555610a15565b82601f106109e757805160ff1916838001178555610a15565b82800160010185558215610a15579182015b82811115610a145782518255916020019190600101906109f9565b5b509050610a229190610a26565b5090565b5b80821115610a3f576000816000905550600101610a27565b5090565b600081359050610a5281611053565b92915050565b600060208284031215610a6a57600080fd5b6000610a7884828501610a43565b91505092915050565b6000610a8d8383610c80565b905092915050565b610a9e81610f43565b82525050565b610aad81610f43565b82525050565b6000610abe82610e97565b610ac88185610eba565b935083602082028501610ada85610e87565b8060005b85811015610b165784840389528151610af78582610a81565b9450610b0283610ead565b925060208a01995050600181019050610ade565b50829750879550505050505092915050565b6000610b3382610ea2565b610b3d8185610ecb565b9350610b4d818560208601610f7f565b610b5681611042565b840191505092915050565b6000610b6c82610ea2565b610b768185610edc565b9350610b86818560208601610f7f565b610b8f81611042565b840191505092915050565b6000610ba7601083610edc565b91507f4d61796f20666f72207468652077696e000000000000000000000000000000006000830152602082019050919050565b6000610be7602583610edc565b91507f4d7573742077616974203330206d696e206265666f726520766f74696e67206160008301527f6761696e2e0000000000000000000000000000000000000000000000000000006020830152604082019050919050565b6000610c4d601383610edc565b91507f4b65746368757020666f72207468652077696e000000000000000000000000006000830152602082019050919050565b600060a083016000830151610c986000860182610a95565b5060208301518482036020860152610cb08282610b28565b9150506040830151610cc56040860182610cf6565b506060830151610cd86060860182610cf6565b506080830151610ceb6080860182610cf6565b508091505092915050565b610cff81610f75565b82525050565b610d0e81610f75565b82525050565b60006020820190508181036000830152610d2e8184610ab3565b905092915050565b60006020820190508181036000830152610d508184610b61565b905092915050565b60006040820190508181036000830152610d728185610b61565b9050610d816020830184610aa4565b9392505050565b60006040820190508181036000830152610da28185610b61565b9050610db16020830184610d05565b9392505050565b60006020820190508181036000830152610dd181610bda565b9050919050565b6000602082019050610ded6000830184610d05565b92915050565b6000608082019050610e086000830186610d05565b8181036020830152610e1981610b9a565b9050610e286040830185610d05565b610e356060830184610d05565b949350505050565b6000608082019050610e526000830186610d05565b8181036020830152610e6381610c40565b9050610e726040830185610d05565b610e7f6060830184610d05565b949350505050565b6000819050602082019050919050565b600081519050919050565b600081519050919050565b6000602082019050919050565b600082825260208201905092915050565b600082825260208201905092915050565b600082825260208201905092915050565b6000610ef882610f75565b9150610f0383610f75565b9250827fffffffffffffffffffffffffffffffffffffffffffffffffffffffffffffffff03821115610f3857610f37610fe4565b5b828201905092915050565b6000610f4e82610f55565b9050919050565b600073ffffffffffffffffffffffffffffffffffffffff82169050919050565b6000819050919050565b60005b83811015610f9d578082015181840152602081019050610f82565b83811115610fac576000848401525b50505050565b60006002820490506001821680610fca57607f821691505b60208210811415610fde57610fdd611013565b5b50919050565b7f4e487b7100000000000000000000000000000000000000000000000000000000600052601160045260246000fd5b7f4e487b7100000000000000000000000000000000000000000000000000000000600052602260045260246000fd5b6000601f19601f8301169050919050565b61105c81610f43565b811461106757600080fd5b5056fea2646970667358221220bc4903db7da0a10ca8c0699650daeb758eb0551680aad3e4c842080541cf41ff64736f6c63430008000033",
  "linkReferences": {},
  "deployedLinkReferences": {}
}